{
    "contractName": "FilesDB",
    "abi": [
        {
            "inputs": [],
            "stateMutability": "nonpayable",
            "type": "constructor"
        },
        {
            "inputs": [
                {
                    "internalType": "string",
                    "name": "ipfsHash",
                    "type": "string"
                }
            ],
            "name": "addFileForUser",
            "outputs": [],
            "stateMutability": "payable",
            "type": "function"
        },
        {
            "inputs": [
                {
                    "internalType": "string",
                    "name": "hash",
                    "type": "string"
                }
            ],
            "name": "addFileHashPending",
            "outputs": [],
            "stateMutability": "payable",
            "type": "function"
        },
        {
            "inputs": [
                {
                    "internalType": "string",
                    "name": "fileHash",
                    "type": "string"
                },
                {
                    "internalType": "string",
                    "name": "_hash",
                    "type": "string"
                },
                {
                    "internalType": "string",
                    "name": "_timestamp",
                    "type": "string"
                },
                {
                    "internalType": "string",
                    "name": "_tags",
                    "type": "string"
                }
            ],
            "name": "addFileInAllFiles",
            "outputs": [],
            "stateMutability": "payable",
            "type": "function"
        },
        {
            "inputs": [
                {
                    "internalType": "string",
                    "name": "hash",
                    "type": "string"
                }
            ],
            "name": "checkIfFileIsPending",
            "outputs": [
                {
                    "internalType": "bool",
                    "name": "",
                    "type": "bool"
                }
            ],
            "stateMutability": "payable",
            "type": "function"
        },
        {
            "inputs": [],
            "name": "getFileForUser",
            "outputs": [
                {
                    "internalType": "string",
                    "name": "",
                    "type": "string"
                }
            ],
            "stateMutability": "view",
            "type": "function"
        },
        {
            "inputs": [
                {
                    "internalType": "string",
                    "name": "hash",
                    "type": "string"
                }
            ],
            "name": "getFileFromHash",
            "outputs": [
                {
                    "internalType": "address",
                    "name": "",
                    "type": "address"
                },
                {
                    "internalType": "string",
                    "name": "",
                    "type": "string"
                },
                {
                    "internalType": "string",
                    "name": "",
                    "type": "string"
                },
                {
                    "internalType": "string",
                    "name": "",
                    "type": "string"
                }
            ],
            "stateMutability": "view",
            "type": "function"
        },
        {
            "inputs": [],
            "name": "getIsStopped",
            "outputs": [
                {
                    "internalType": "bool",
                    "name": "",
                    "type": "bool"
                }
            ],
            "stateMutability": "view",
            "type": "function"
        },
        {
            "inputs": [],
            "name": "toggleStopped",
            "outputs": [],
            "stateMutability": "nonpayable",
            "type": "function"
        }
    ],
    "bytecode": "608060405234801561001057600080fd5b50600080546001600160a01b03191633179055611260806100326000396000f3fe60806040526004361061007b5760003560e01c8063943fc11b1161004e578063943fc11b1461040c57806395256cf91461061a578063db0af603146106be578063f3c6c9f2146107625761007b565b80630aed25d714610080578063858094ed146102b5578063874e250d146102de578063934becec14610368575b600080fd5b6102b36004803603608081101561009657600080fd5b810190602081018135600160201b8111156100b057600080fd5b8201836020820111156100c257600080fd5b803590602001918460018302840111600160201b831117156100e357600080fd5b91908080601f0160208091040260200160405190810160405280939291908181526020018383808284376000920191909152509295949360208101935035915050600160201b81111561013557600080fd5b82018360208201111561014757600080fd5b803590602001918460018302840111600160201b8311171561016857600080fd5b91908080601f0160208091040260200160405190810160405280939291908181526020018383808284376000920191909152509295949360208101935035915050600160201b8111156101ba57600080fd5b8201836020820111156101cc57600080fd5b803590602001918460018302840111600160201b831117156101ed57600080fd5b91908080601f0160208091040260200160405190810160405280939291908181526020018383808284376000920191909152509295949360208101935035915050600160201b81111561023f57600080fd5b82018360208201111561025157600080fd5b803590602001918460018302840111600160201b8311171561027257600080fd5b91908080601f016020809104026020016040519081016040528093929190818152602001838380828437600092019190915250929550610777945050505050565b005b3480156102c157600080fd5b506102ca610a3c565b604080519115158252519081900360200190f35b3480156102ea57600080fd5b506102f3610a4d565b6040805160208082528351818301528351919283929083019185019080838360005b8381101561032d578181015183820152602001610315565b50505050905090810190601f16801561035a5780820380516001836020036101000a031916815260200191505b509250505060405180910390f35b6102ca6004803603602081101561037e57600080fd5b810190602081018135600160201b81111561039857600080fd5b8201836020820111156103aa57600080fd5b803590602001918460018302840111600160201b831117156103cb57600080fd5b91908080601f016020809104026020016040519081016040528093929190818152602001838380828437600092019190915250929550610aeb945050505050565b34801561041857600080fd5b506104bd6004803603602081101561042f57600080fd5b810190602081018135600160201b81111561044957600080fd5b82018360208201111561045b57600080fd5b803590602001918460018302840111600160201b8311171561047c57600080fd5b91908080601f016020809104026020016040519081016040528093929190818152602001838380828437600092019190915250929550610bb0945050505050565b60405180856001600160a01b03166001600160a01b03168152602001806020018060200180602001848103845287818151815260200191508051906020019080838360005b8381101561051a578181015183820152602001610502565b50505050905090810190601f1680156105475780820380516001836020036101000a031916815260200191505b50848103835286518152865160209182019188019080838360005b8381101561057a578181015183820152602001610562565b50505050905090810190601f1680156105a75780820380516001836020036101000a031916815260200191505b50848103825285518152855160209182019187019080838360005b838110156105da5781810151838201526020016105c2565b50505050905090810190601f1680156106075780820380516001836020036101000a031916815260200191505b5097505050505050505060405180910390f35b6102b36004803603602081101561063057600080fd5b810190602081018135600160201b81111561064a57600080fd5b82018360208201111561065c57600080fd5b803590602001918460018302840111600160201b8311171561067d57600080fd5b91908080601f016020809104026020016040519081016040528093929190818152602001838380828437600092019190915250929550610f72945050505050565b6102b3600480360360208110156106d457600080fd5b810190602081018135600160201b8111156106ee57600080fd5b82018360208201111561070057600080fd5b803590602001918460018302840111600160201b8311171561072157600080fd5b91908080601f016020809104026020016040519081016040528093929190818152602001838380828437600092019190915250929550611036945050505050565b34801561076e57600080fd5b506102b3611105565b600054600160a01b900460ff161515600114156107d2576040805162461bcd60e51b81526020600482015260146024820152734e6f7420616374697665207269676874206e6f7760601b604482015290519081900360640190fd5b8351610825576040805162461bcd60e51b815260206004820152601960248201527f46696c6520686173682063616e6e6f7420626520656d70747900000000000000604482015290519081900360640190fd5b8251610878576040805162461bcd60e51b815260206004820152601960248201527f4970667320686173682063616e6e6f7420626520656d70747900000000000000604482015290519081900360640190fd5b81516108cb576040805162461bcd60e51b815260206004820152601960248201527f54696d657374616d702063616e6e6f7420626520656d70747900000000000000604482015290519081900360640190fd5b6040518060800160405280336001600160a01b03168152602001838152602001828152602001848152506001856040518082805190602001908083835b602083106109275780518252601f199092019160209182019101610908565b51815160209384036101000a6000190180199092169116179052920194855250604051938490038101909320845181546001600160a01b0319166001600160a01b0390911617815584840151805191946109899450600186019350019061116f565b50604082015180516109a591600284019160209091019061116f565b50606082015180516109c191600384019160209091019061116f565b5090505060006003846040518082805190602001908083835b602083106109f95780518252601f1990920191602091820191016109da565b51815160209384036101000a60001901801990921691161790529201948552506040519384900301909220805460ff191693151593909317909255505050505050565b600054600160a01b900460ff165b90565b33600090815260026020818152604092839020805484516001821615610100026000190190911693909304601f81018390048302840183019094528383526060939091830182828015610ae15780601f10610ab657610100808354040283529160200191610ae1565b820191906000526020600020905b815481529060010190602001808311610ac457829003601f168201915b5050505050905090565b60008054600160a01b900460ff16151560011415610b47576040805162461bcd60e51b81526020600482015260146024820152734e6f7420616374697665207269676874206e6f7760601b604482015290519081900360640190fd5b6003826040518082805190602001908083835b60208310610b795780518252601f199092019160209182019101610b5a565b51815160209384036101000a600019018019909216911617905292019485525060405193849003019092205460ff16949350505050565b60006060806060600060149054906101000a900460ff161515600115151415610c17576040805162461bcd60e51b81526020600482015260146024820152734e6f7420616374697665207269676874206e6f7760601b604482015290519081900360640190fd5b6001856040518082805190602001908083835b60208310610c495780518252601f199092019160209182019101610c2a565b51815160209384036101000a600019018019909216911617905292019485525060405193849003810184205489516001600160a01b0390911694600194508a9350918291908401908083835b60208310610cb45780518252601f199092019160209182019101610c95565b6001836020036101000a03801982511681845116808217855250505050505090500191505090815260200160405180910390206001016001876040518082805190602001908083835b60208310610d1c5780518252601f199092019160209182019101610cfd565b6001836020036101000a03801982511681845116808217855250505050505090500191505090815260200160405180910390206002016001886040518082805190602001908083835b60208310610d845780518252601f199092019160209182019101610d65565b518151600019602094850361010090810a820192831692199390931691909117909252949092019687526040805197889003820188208a54601f60026001831615909802909501169590950492830182900482028801820190528187526003909301959450879350918401905082828015610e405780601f10610e1557610100808354040283529160200191610e40565b820191906000526020600020905b815481529060010190602001808311610e2357829003601f168201915b5050855460408051602060026001851615610100026000190190941693909304601f810184900484028201840190925281815295985087945092508401905082828015610ece5780601f10610ea357610100808354040283529160200191610ece565b820191906000526020600020905b815481529060010190602001808311610eb157829003601f168201915b5050845460408051602060026001851615610100026000190190941693909304601f810184900484028201840190925281815295975086945092508401905082828015610f5c5780601f10610f3157610100808354040283529160200191610f5c565b820191906000526020600020905b815481529060010190602001808311610f3f57829003601f168201915b5050505050905093509350935093509193509193565b600054600160a01b900460ff16151560011415610fcd576040805162461bcd60e51b81526020600482015260146024820152734e6f7420616374697665207269676874206e6f7760601b604482015290519081900360640190fd5b8051611012576040805162461bcd60e51b815260206004820152600f60248201526e43616e6e6f7420626520656d70747960881b604482015290519081900360640190fd5b33600090815260026020908152604090912082516110329284019061116f565b5050565b600054600160a01b900460ff16151560011415611091576040805162461bcd60e51b81526020600482015260146024820152734e6f7420616374697665207269676874206e6f7760601b604482015290519081900360640190fd5b60016003826040518082805190602001908083835b602083106110c55780518252601f1990920191602091820191016110a6565b51815160209384036101000a60001901801990921691161790529201948552506040519384900301909220805460ff191693151593909317909255505050565b6000546001600160a01b0316331461114e5760405162461bcd60e51b81526004018080602001828103825260238152602001806112086023913960400191505060405180910390fd5b6000805460ff60a01b198116600160a01b9182900460ff1615909102179055565b828054600181600116156101000203166002900490600052602060002090601f016020900481019282601f106111b057805160ff19168380011785556111dd565b828001600101855582156111dd579182015b828111156111dd5782518255916020019190600101906111c2565b506111e99291506111ed565b5090565b610a4a91905b808211156111e957600081556001016111f356fe596f7520617265206e6f74206f776e6572206f66207468697320636f6e74726163742ea2646970667358221220056228efe50d85aaab418bb84045d32bc7e316a246501aa7dcba078fc74c43fe64736f6c63430006010033",
    "sourcePath": "/Users/noumanahmad/Documents/Block Chain/mediumArticle/contracts/FilesDB.sol",
    "compiler": {
        "name": "solc",
        "version": "0.6.1+commit.e6f7d5a4"
    },
    "functionHashes": {
        "addFileForUser(string)": "95256cf9",
        "addFileHashPending(string)": "db0af603",
        "addFileInAllFiles(string,string,string,string)": "0aed25d7",
        "checkIfFileIsPending(string)": "934becec",
        "getFileForUser()": "874e250d",
        "getFileFromHash(string)": "943fc11b",
        "getIsStopped()": "858094ed",
        "toggleStopped()": "f3c6c9f2"
    },
    "gasEstimates": {
        "creation": {
            "codeDepositCost": "940800",
            "executionCost": "21810",
            "totalCost": "962610"
        },
        "external": {
            "addFileForUser(string)": "infinite",
            "addFileHashPending(string)": "infinite",
            "addFileInAllFiles(string,string,string,string)": "infinite",
            "checkIfFileIsPending(string)": "infinite",
            "getFileForUser()": "infinite",
            "getFileFromHash(string)": "infinite",
            "getIsStopped()": "1051",
            "toggleStopped()": "infinite"
        }
    }
}