{
  "contractName": "FilesDB",
  "abi": [
    {
      "inputs": [],
      "payable": false,
      "stateMutability": "nonpayable",
      "type": "constructor"
    },
    {
      "anonymous": false,
      "inputs": [
        {
          "indexed": false,
          "internalType": "bool",
          "name": "isSaved",
          "type": "bool"
        }
      ],
      "name": "FileSavedAgainstUser",
      "type": "event"
    },
    {
      "anonymous": false,
      "inputs": [
        {
          "indexed": false,
          "internalType": "bool",
          "name": "isSaved",
          "type": "bool"
        }
      ],
      "name": "FileSavedInAllFiles",
      "type": "event"
    },
    {
      "anonymous": false,
      "inputs": [
        {
          "indexed": false,
          "internalType": "address",
          "name": "sender",
          "type": "address"
        }
      ],
      "name": "LogFallback",
      "type": "event"
    },
    {
      "anonymous": false,
      "inputs": [
        {
          "indexed": false,
          "internalType": "bool",
          "name": "isSaved",
          "type": "bool"
        }
      ],
      "name": "PendingFileHashSaved",
      "type": "event"
    },
    {
      "payable": false,
      "stateMutability": "nonpayable",
      "type": "fallback"
    },
    {
      "constant": false,
      "inputs": [],
      "name": "toggleStopped",
      "outputs": [],
      "payable": false,
      "stateMutability": "nonpayable",
      "type": "function"
    },
    {
      "constant": true,
      "inputs": [
        {
          "internalType": "uint256",
          "name": "_hash",
          "type": "uint256"
        }
      ],
      "name": "checkIfFileIsPending",
      "outputs": [
        {
          "internalType": "string",
          "name": "",
          "type": "string"
        }
      ],
      "payable": false,
      "stateMutability": "view",
      "type": "function"
    },
    {
      "constant": false,
      "inputs": [
        {
          "internalType": "uint256",
          "name": "_hash",
          "type": "uint256"
        },
        {
          "internalType": "string",
          "name": "timestamp",
          "type": "string"
        }
      ],
      "name": "addFileHashPending",
      "outputs": [],
      "payable": true,
      "stateMutability": "payable",
      "type": "function"
    },
    {
      "constant": true,
      "inputs": [
        {
          "internalType": "uint256",
          "name": "_hash",
          "type": "uint256"
        }
      ],
      "name": "getFileFromHash",
      "outputs": [
        {
          "internalType": "address",
          "name": "",
          "type": "address"
        },
        {
          "internalType": "string",
          "name": "",
          "type": "string"
        },
        {
          "internalType": "string",
          "name": "",
          "type": "string"
        },
        {
          "internalType": "string",
          "name": "",
          "type": "string"
        }
      ],
      "payable": false,
      "stateMutability": "view",
      "type": "function"
    },
    {
      "constant": false,
      "inputs": [
        {
          "internalType": "uint256",
          "name": "fileHash",
          "type": "uint256"
        },
        {
          "internalType": "string",
          "name": "_hash",
          "type": "string"
        },
        {
          "internalType": "string",
          "name": "_timestamp",
          "type": "string"
        },
        {
          "internalType": "string",
          "name": "_tags",
          "type": "string"
        }
      ],
      "name": "addFileInAllFiles",
      "outputs": [],
      "payable": true,
      "stateMutability": "payable",
      "type": "function"
    },
    {
      "constant": true,
      "inputs": [],
      "name": "getIsStopped",
      "outputs": [
        {
          "internalType": "bool",
          "name": "",
          "type": "bool"
        }
      ],
      "payable": false,
      "stateMutability": "view",
      "type": "function"
    },
    {
      "constant": false,
      "inputs": [
        {
          "internalType": "string",
          "name": "ipfsHash",
          "type": "string"
        }
      ],
      "name": "addFileForUser",
      "outputs": [],
      "payable": true,
      "stateMutability": "payable",
      "type": "function"
    },
    {
      "constant": true,
      "inputs": [],
      "name": "getFileForUser",
      "outputs": [
        {
          "internalType": "string",
          "name": "",
          "type": "string"
        }
      ],
      "payable": false,
      "stateMutability": "view",
      "type": "function"
    }
  ],
  "bytecode": "0x608060405234801561001057600080fd5b5033806000806101000a81548173ffffffffffffffffffffffffffffffffffffffff021916908373ffffffffffffffffffffffffffffffffffffffff16021790555050611624806100626000396000f3fe60806040526004361061007b5760003560e01c8063a846238e1161004e578063a846238e14610394578063c66e71bd14610587578063dd45ad191461064c578063f3c6c9f21461080b5761007b565b8063858094ed14610166578063874e250d1461019557806395256cf914610225578063a3ac1a1d146102e0575b34801561008757600080fd5b5060008036905014610101576040517f08c379a000000000000000000000000000000000000000000000000000000000815260040180806020018281038252601a8152602001807f4d657373616765204c656e677468206973206e6f74207a65726f00000000000081525060200191505060405180910390fd5b7fb69fd6ce1172b9b256d41565f7bc27f5c13f2fe9d1b78f45c807dd66d97ea6e933604051808273ffffffffffffffffffffffffffffffffffffffff1673ffffffffffffffffffffffffffffffffffffffff16815260200191505060405180910390a1005b34801561017257600080fd5b5061017b610822565b604051808215151515815260200191505060405180910390f35b3480156101a157600080fd5b506101aa610838565b6040518080602001828103825283818151815260200191508051906020019080838360005b838110156101ea5780820151818401526020810190506101cf565b50505050905090810190601f1680156102175780820380516001836020036101000a031916815260200191505b509250505060405180910390f35b6102de6004803603602081101561023b57600080fd5b810190808035906020019064010000000081111561025857600080fd5b82018360208201111561026a57600080fd5b8035906020019184600183028401116401000000008311171561028c57600080fd5b91908080601f016020809104026020016040519081016040528093929190818152602001838380828437600081840152601f19601f820116905080830192505050505050509192919290505050610917565b005b3480156102ec57600080fd5b506103196004803603602081101561030357600080fd5b8101908080359060200190929190505050610aac565b6040518080602001828103825283818151815260200191508051906020019080838360005b8381101561035957808201518184015260208101905061033e565b50505050905090810190601f1680156103865780820380516001836020036101000a031916815260200191505b509250505060405180910390f35b610585600480360360808110156103aa57600080fd5b8101908080359060200190929190803590602001906401000000008111156103d157600080fd5b8201836020820111156103e357600080fd5b8035906020019184600183028401116401000000008311171561040557600080fd5b91908080601f016020809104026020016040519081016040528093929190818152602001838380828437600081840152601f19601f8201169050808301925050505050505091929192908035906020019064010000000081111561046857600080fd5b82018360208201111561047a57600080fd5b8035906020019184600183028401116401000000008311171561049c57600080fd5b91908080601f016020809104026020016040519081016040528093929190818152602001838380828437600081840152601f19601f820116905080830192505050505050509192919290803590602001906401000000008111156104ff57600080fd5b82018360208201111561051157600080fd5b8035906020019184600183028401116401000000008311171561053357600080fd5b91908080601f016020809104026020016040519081016040528093929190818152602001838380828437600081840152601f19601f820116905080830192505050505050509192919290505050610beb565b005b61064a6004803603604081101561059d57600080fd5b8101908080359060200190929190803590602001906401000000008111156105c457600080fd5b8201836020820111156105d657600080fd5b803590602001918460018302840111640100000000831117156105f857600080fd5b91908080601f016020809104026020016040519081016040528093929190818152602001838380828437600081840152601f19601f820116905080830192505050505050509192919290505050610f09565b005b34801561065857600080fd5b506106856004803603602081101561066f57600080fd5b81019080803590602001909291905050506110e9565b604051808573ffffffffffffffffffffffffffffffffffffffff1673ffffffffffffffffffffffffffffffffffffffff168152602001806020018060200180602001848103845287818151815260200191508051906020019080838360005b838110156106ff5780820151818401526020810190506106e4565b50505050905090810190601f16801561072c5780820380516001836020036101000a031916815260200191505b50848103835286818151815260200191508051906020019080838360005b8381101561076557808201518184015260208101905061074a565b50505050905090810190601f1680156107925780820380516001836020036101000a031916815260200191505b50848103825285818151815260200191508051906020019080838360005b838110156107cb5780820151818401526020810190506107b0565b50505050905090810190601f1680156107f85780820380516001836020036101000a031916815260200191505b5097505050505050505060405180910390f35b34801561081757600080fd5b506108206113d6565b005b60008060149054906101000a900460ff16905090565b6060600260003373ffffffffffffffffffffffffffffffffffffffff1673ffffffffffffffffffffffffffffffffffffffff1681526020019081526020016000208054600181600116156101000203166002900480601f01602080910402602001604051908101604052809291908181526020018280546001816001161561010002031660029004801561090d5780601f106108e25761010080835404028352916020019161090d565b820191906000526020600020905b8154815290600101906020018083116108f057829003601f168201915b5050505050905090565b60011515600060149054906101000a900460ff16151514156109a1576040517f08c379a00000000000000000000000000000000000000000000000000000000081526004018080602001828103825260148152602001807f4e6f7420616374697665207269676874206e6f7700000000000000000000000081525060200191505060405180910390fd5b600081511415610a19576040517f08c379a000000000000000000000000000000000000000000000000000000000815260040180806020018281038252600f8152602001807f43616e6e6f7420626520656d707479000000000000000000000000000000000081525060200191505060405180910390fd5b80600260003373ffffffffffffffffffffffffffffffffffffffff1673ffffffffffffffffffffffffffffffffffffffff1681526020019081526020016000209080519060200190610a6c9291906114a7565b507fce12e23e7d2338d6b9ca7fc685311291a48fc861a48b94fea819bdc33d13ef1f6001604051808215151515815260200191505060405180910390a150565b606060011515600060149054906101000a900460ff1615151415610b38576040517f08c379a00000000000000000000000000000000000000000000000000000000081526004018080602001828103825260148152602001807f4e6f7420616374697665207269676874206e6f7700000000000000000000000081525060200191505060405180910390fd5b600360008381526020019081526020016000208054600181600116156101000203166002900480601f016020809104026020016040519081016040528092919081815260200182805460018160011615610100020316600290048015610bdf5780601f10610bb457610100808354040283529160200191610bdf565b820191906000526020600020905b815481529060010190602001808311610bc257829003601f168201915b50505050509050919050565b60011515600060149054906101000a900460ff1615151415610c75576040517f08c379a00000000000000000000000000000000000000000000000000000000081526004018080602001828103825260148152602001807f4e6f7420616374697665207269676874206e6f7700000000000000000000000081525060200191505060405180910390fd5b6000841415610cec576040517f08c379a00000000000000000000000000000000000000000000000000000000081526004018080602001828103825260198152602001807f46696c6520686173682063616e6e6f7420626520656d7074790000000000000081525060200191505060405180910390fd5b600083511415610d64576040517f08c379a00000000000000000000000000000000000000000000000000000000081526004018080602001828103825260198152602001807f4970667320686173682063616e6e6f7420626520656d7074790000000000000081525060200191505060405180910390fd5b600082511415610ddc576040517f08c379a00000000000000000000000000000000000000000000000000000000081526004018080602001828103825260198152602001807f54696d657374616d702063616e6e6f7420626520656d7074790000000000000081525060200191505060405180910390fd5b60405180608001604052803373ffffffffffffffffffffffffffffffffffffffff168152602001838152602001828152602001848152506001600086815260200190815260200160002060008201518160000160006101000a81548173ffffffffffffffffffffffffffffffffffffffff021916908373ffffffffffffffffffffffffffffffffffffffff1602179055506020820151816001019080519060200190610e89929190611527565b506040820151816002019080519060200190610ea6929190611527565b506060820151816003019080519060200190610ec3929190611527565b509050507ffe4f6ba5787016e2d96e9e09a7a09dd2bfeb352a21adedf8617e477f6142ad826001604051808215151515815260200191505060405180910390a150505050565b60011515600060149054906101000a900460ff1615151415610f93576040517f08c379a00000000000000000000000000000000000000000000000000000000081526004018080602001828103825260148152602001807f4e6f7420616374697665207269676874206e6f7700000000000000000000000081525060200191505060405180910390fd5b60008211611009576040517f08c379a00000000000000000000000000000000000000000000000000000000081526004018080602001828103825260168152602001807f20686173682063616e6e6f7420626520656d707479200000000000000000000081525060200191505060405180910390fd5b600081511415611081576040517f08c379a000000000000000000000000000000000000000000000000000000000815260040180806020018281038252601a8152602001807f2054696d657374616d702063616e6e6f7420626520656d70747900000000000081525060200191505060405180910390fd5b806003600084815260200190815260200160002090805190602001906110a89291906114a7565b507ff708726aeb5b3dac3432b177d9fb7a266716d0e983edc3f1127ba39113d6676f6001604051808215151515815260200191505060405180910390a15050565b6000606080606060011515600060149054906101000a900460ff161515141561117a576040517f08c379a00000000000000000000000000000000000000000000000000000000081526004018080602001828103825260148152602001807f4e6f7420616374697665207269676874206e6f7700000000000000000000000081525060200191505060405180910390fd5b6001600086815260200190815260200160002060000160009054906101000a900473ffffffffffffffffffffffffffffffffffffffff16600160008781526020019081526020016000206001016001600088815260200190815260200160002060020160016000898152602001908152602001600020600301828054600181600116156101000203166002900480601f0160208091040260200160405190810160405280929190818152602001828054600181600116156101000203166002900480156112885780601f1061125d57610100808354040283529160200191611288565b820191906000526020600020905b81548152906001019060200180831161126b57829003601f168201915b50505050509250818054600181600116156101000203166002900480601f0160208091040260200160405190810160405280929190818152602001828054600181600116156101000203166002900480156113245780601f106112f957610100808354040283529160200191611324565b820191906000526020600020905b81548152906001019060200180831161130757829003601f168201915b50505050509150808054600181600116156101000203166002900480601f0160208091040260200160405190810160405280929190818152602001828054600181600116156101000203166002900480156113c05780601f10611395576101008083540402835291602001916113c0565b820191906000526020600020905b8154815290600101906020018083116113a357829003601f168201915b5050505050905093509350935093509193509193565b3373ffffffffffffffffffffffffffffffffffffffff166000809054906101000a900473ffffffffffffffffffffffffffffffffffffffff1673ffffffffffffffffffffffffffffffffffffffff161461147b576040517f08c379a00000000000000000000000000000000000000000000000000000000081526004018080602001828103825260238152602001806115cd6023913960400191505060405180910390fd5b600060149054906101000a900460ff1615600060146101000a81548160ff021916908315150217905550565b828054600181600116156101000203166002900490600052602060002090601f016020900481019282601f106114e857805160ff1916838001178555611516565b82800160010185558215611516579182015b828111156115155782518255916020019190600101906114fa565b5b50905061152391906115a7565b5090565b828054600181600116156101000203166002900490600052602060002090601f016020900481019282601f1061156857805160ff1916838001178555611596565b82800160010185558215611596579182015b8281111561159557825182559160200191906001019061157a565b5b5090506115a391906115a7565b5090565b6115c991905b808211156115c55760008160009055506001016115ad565b5090565b9056fe596f7520617265206e6f74206f776e6572206f66207468697320636f6e74726163742ea265627a7a723158200f43e50af7ab26723cdeb2495653a0b41afe9b4f9a7c4007c5a110e46d0b130164736f6c634300050c0032",
  "source": "pragma solidity >=0.4.21 <0.7.0;\nimport  './Owner.sol';\n\n/**\n@title Save the Files Record\n@author Nouman Ahmad\n@notice You can use this contract for saving the files. Also it inherits owner contract\n */\ncontract FilesDB is Owner {\n\n    // This struct is used for saving the file detail against their content hash\n    struct File {\n        address user;\n        string timestamp;\n        string tags;\n        string ipfsHash;\n    }\n\n    // Used when file hash is saved as pending\n    event PendingFileHashSaved(bool isSaved);\n    // Used when files record is saved against User\n    event FileSavedAgainstUser(bool isSaved);\n    // Used when file hash is saved in all files\n    event FileSavedInAllFiles(bool isSaved);\n    // Used when fallback function is invoked\n    event LogFallback(address sender);\n    // For Stopping the contract : Helps us implementing circuit breaker design pattern.\n    bool private isStopped;\n    // Saves the data for all files\n    mapping (uint256 => File) private allFiles;\n    // Save the user record of files against address\n    mapping(address => string) private userFiles;\n    // Save the file in pending\n    mapping (uint256 => string) private isPendingUpdates;\n\n\n\n    /**\n    @author Nouman Ahmad\n    @notice Constructor for this contract . Also initializes owner contract\n    */\n    constructor() Owner(msg.sender) public { }\n\n    /**\n    @author Nouman Ahmad\n    @notice Check if contract is active\n     */\n    modifier isActive {\n        require(isStopped != true, \"Not active right now\");\n        _;\n    }\n\n    /**\n    @author Nouman Ahmad\n    @notice This modifier is used when contract is stopped and you have to run anything\n    @dev circuit breaker design pattern implementation\n     */\n    modifier onlyWhenStopped {\n        require(isStopped, \"Not stopped right now\");\n        _;\n    }\n\n    /**\n    @author Nouman Ahmad\n    @notice Toggle the state of contract to stopped or Active\n    @dev This function is using modifier isAdmin which checks if user calling this is owner or not\n     */\n    function toggleStopped() public isAdmin {\n        isStopped = !isStopped;\n    }\n\n    /**\n    @author Nouman Ahmad\n    @notice Check if file trying to upload is in pending list, if it is in pending list returns the timestamp\n    @param _hash Hash of the file\n    @return timestamp in string\n     */\n    function checkIfFileIsPending(uint256 _hash) public isActive view returns(string memory ){\n        return isPendingUpdates[_hash];\n    }\n\n    /**\n    @author Nouman Ahmad\n    @notice Saves the file in pending: emit the event file saved in pending state\n    @param _hash Hash of the file content\n    @param timestamp Timestamp of the file\n     */\n    function addFileHashPending(uint256 _hash, string memory timestamp) public isActive payable{\n        require(_hash > 0, \" hash cannot be empty \");\n        require(bytes(timestamp).length != 0, \" Timestamp cannot be empty\");\n        isPendingUpdates[_hash] = timestamp;\n        emit PendingFileHashSaved(true);\n    }\n\n    /**\n    @author Nouman Ahmad\n    @notice Return the file details saved in contract.\n    @dev Return the details, saved as struct\n    @param _hash Hash of the file\n    @return address of the uploader of file\n    @return timestamp of uploaded file\n    @return tags of the file\n    @return IPFS hash of file\n     */\n    function getFileFromHash(uint256 _hash) public isActive view returns(address , string memory, string memory, string memory) {\n        return( allFiles[_hash].user, allFiles[_hash].timestamp, allFiles[_hash].tags, allFiles[_hash].ipfsHash);\n    }\n\n    /**\n    @author Nouman Ahmad\n    @notice Add the file in all files: emit the event file saved in all files\n    @param fileHash Hash of content of file\n    @param _hash ipfs hash of file\n    @param _timestamp timestamp of file\n    @param _tags tags of the file\n    */\n    function addFileInAllFiles(uint256 fileHash, string memory _hash, string memory _timestamp, string memory _tags)\n        public isActive payable{\n        require(fileHash != 0, \"File hash cannot be empty\");\n        require(bytes(_hash).length != 0, \"Ipfs hash cannot be empty\");\n        require(bytes(_timestamp).length != 0, \"Timestamp cannot be empty\");\n            allFiles[fileHash] = File({\n                user: msg.sender,\n                timestamp: _timestamp,\n                tags: _tags,\n                ipfsHash: _hash\n            });\n\n        emit FileSavedInAllFiles(true);\n    }\n\n    /**\n    @author Nouman Ahmad\n    @notice Get the is stopped variable\n    @return boolean variable is stopped\n     */\n    function getIsStopped() public view returns(bool) {\n        return isStopped;\n    }\n\n    /**\n    @author Nouman Ahmad\n    @notice Add ipfs hash against user: emit file saved success\n    @dev Files for user are saved in Json file,  which is uploaded at IPFS.\n    @param ipfsHash hash of file in json\n     */\n    function addFileForUser(string memory ipfsHash) public isActive payable{\n        require(bytes(ipfsHash).length != 0, \"Cannot be empty\");\n        userFiles[msg.sender] = ipfsHash;\n        emit FileSavedAgainstUser(true);\n    }\n\n    /**\n    @author Nouman Ahmad\n    @notice Get the file hash of user\n    @dev Files saved in json file and uploaded at IPFS. Helps retreiving the ipfs\n    @return ipfs hash of file\n     */\n    function getFileForUser() public view returns(string memory) {\n        return userFiles[msg.sender];\n    }\n\n\n    /**\n    @author Nouman Ahmad\n    @notice Fallback function\n     */\n    function() external {\n        require(msg.data.length == 0, \"Message Length is not zero\");\n        emit LogFallback(msg.sender);\n    }\n\n}",
  "sourcePath": "/Users/noumanahmad/Documents/Block Chain/ProofOfExistence/contracts/FilesDB.sol",
  "compiler": {
    "name": "solc",
    "version": "0.5.12+commit.7709ece9.Emscripten.clang"
  },
  "schemaVersion": "3.0.20",
  "updatedAt": "2020-02-02T16:04:49.657Z",
  "networkType": "ethereum",
  "devdoc": {
    "author": "Nouman Ahmad",
    "methods": {
      "addFileForUser(string)": {
        "author": "Nouman Ahmad",
        "details": "Files for user are saved in Json file,  which is uploaded at IPFS.",
        "params": {
          "ipfsHash": "hash of file in json"
        }
      },
      "addFileHashPending(uint256,string)": {
        "author": "Nouman Ahmad",
        "params": {
          "_hash": "Hash of the file content",
          "timestamp": "Timestamp of the file"
        }
      },
      "addFileInAllFiles(uint256,string,string,string)": {
        "author": "Nouman Ahmad",
        "params": {
          "_hash": "ipfs hash of file",
          "_tags": "tags of the file",
          "_timestamp": "timestamp of file",
          "fileHash": "Hash of content of file"
        }
      },
      "checkIfFileIsPending(uint256)": {
        "author": "Nouman Ahmad",
        "params": {
          "_hash": "Hash of the file"
        },
        "return": "timestamp in string"
      },
      "constructor": {
        "author": "Nouman Ahmad"
      },
      "getFileForUser()": {
        "author": "Nouman Ahmad",
        "details": "Files saved in json file and uploaded at IPFS. Helps retreiving the ipfs",
        "return": "ipfs hash of file"
      },
      "getFileFromHash(uint256)": {
        "author": "Nouman Ahmad",
        "details": "Return the details, saved as struct",
        "params": {
          "_hash": "Hash of the file"
        },
        "return": "address of the uploader of filetimestamp of uploaded filetags of the fileIPFS hash of file"
      },
      "getIsStopped()": {
        "author": "Nouman Ahmad",
        "return": "boolean variable is stopped"
      },
      "toggleStopped()": {
        "author": "Nouman Ahmad",
        "details": "This function is using modifier isAdmin which checks if user calling this is owner or not"
      }
    },
    "title": "Save the Files Record"
  },
  "userdoc": {
    "methods": {
      "addFileForUser(string)": {
        "notice": "Add ipfs hash against user: emit file saved success"
      },
      "addFileHashPending(uint256,string)": {
        "notice": "Saves the file in pending: emit the event file saved in pending state"
      },
      "addFileInAllFiles(uint256,string,string,string)": {
        "notice": "Add the file in all files: emit the event file saved in all files"
      },
      "checkIfFileIsPending(uint256)": {
        "notice": "Check if file trying to upload is in pending list, if it is in pending list returns the timestamp"
      },
      "constructor": "Constructor for this contract . Also initializes owner contract",
      "getFileForUser()": {
        "notice": "Get the file hash of user"
      },
      "getFileFromHash(uint256)": {
        "notice": "Return the file details saved in contract."
      },
      "getIsStopped()": {
        "notice": "Get the is stopped variable"
      },
      "toggleStopped()": {
        "notice": "Toggle the state of contract to stopped or Active"
      }
    },
    "notice": "You can use this contract for saving the files. Also it inherits owner contract"
  }
}