{
  "contractName": "FilesDBWithLibrary",
  "abi": [
    {
      "constant": false,
      "inputs": [
        {
          "internalType": "string",
          "name": "_hash",
          "type": "string"
        }
      ],
      "name": "addFileForUser",
      "outputs": [],
      "payable": false,
      "stateMutability": "nonpayable",
      "type": "function"
    },
    {
      "constant": true,
      "inputs": [],
      "name": "getFile",
      "outputs": [
        {
          "internalType": "string",
          "name": "",
          "type": "string"
        }
      ],
      "payable": false,
      "stateMutability": "view",
      "type": "function"
    },
    {
      "constant": false,
      "inputs": [
        {
          "internalType": "uint256",
          "name": "fileContentHash",
          "type": "uint256"
        },
        {
          "internalType": "string",
          "name": "timestamp",
          "type": "string"
        }
      ],
      "name": "addFileAsPending",
      "outputs": [],
      "payable": false,
      "stateMutability": "nonpayable",
      "type": "function"
    },
    {
      "constant": true,
      "inputs": [
        {
          "internalType": "uint256",
          "name": "fileContentHash",
          "type": "uint256"
        }
      ],
      "name": "getPendingFileTime",
      "outputs": [
        {
          "internalType": "string",
          "name": "",
          "type": "string"
        }
      ],
      "payable": false,
      "stateMutability": "view",
      "type": "function"
    }
  ],
  "bytecode": "0x608060405234801561001057600080fd5b50610793806100206000396000f3fe608060405234801561001057600080fd5b506004361061004c5760003560e01c8063206ae54a146100515780632fa816921461011657806395256cf914610199578063c1ca5a7b14610254575b600080fd5b6101146004803603604081101561006757600080fd5b81019080803590602001909291908035906020019064010000000081111561008e57600080fd5b8201836020820111156100a057600080fd5b803590602001918460018302840111640100000000831117156100c257600080fd5b91908080601f016020809104026020016040519081016040528093929190818152602001838380828437600081840152601f19601f8201169050808301925050505050505091929192905050506102fb565b005b61011e6103dc565b6040518080602001828103825283818151815260200191508051906020019080838360005b8381101561015e578082015181840152602081019050610143565b50505050905090810190601f16801561018b5780820380516001836020036101000a031916815260200191505b509250505060405180910390f35b610252600480360360208110156101af57600080fd5b81019080803590602001906401000000008111156101cc57600080fd5b8201836020820111156101de57600080fd5b8035906020019184600183028401116401000000008311171561020057600080fd5b91908080601f016020809104026020016040519081016040528093929190818152602001838380828437600081840152601f19601f82011690508083019250505050505050919291929050505061052c565b005b6102806004803603602081101561026a57600080fd5b8101908080359060200190929190505050610604565b6040518080602001828103825283818151815260200191508051906020019080838360005b838110156102c05780820151818401526020810190506102a5565b50505050905090810190601f1680156102ed5780820380516001836020036101000a031916815260200191505b509250505060405180910390f35b73__DataStorage___________________________631a2fec30600084846040518463ffffffff1660e01b81526004018084815260200183815260200180602001828103825283818151815260200191508051906020019080838360005b83811015610374578082015181840152602081019050610359565b50505050905090810190601f1680156103a15780820380516001836020036101000a031916815260200191505b5094505050505060006040518083038186803b1580156103c057600080fd5b505af41580156103d4573d6000803e3d6000fd5b505050505050565b606073__DataStorage___________________________631686154d60006040518263ffffffff1660e01b81526004018082815260200191505060006040518083038186803b15801561042e57600080fd5b505af4158015610442573d6000803e3d6000fd5b505050506040513d6000823e3d601f19601f82011682018060405250602081101561046c57600080fd5b810190808051604051939291908464010000000082111561048c57600080fd5b838201915060208201858111156104a257600080fd5b82518660018202830111640100000000821117156104bf57600080fd5b8083526020830192505050908051906020019080838360005b838110156104f35780820151818401526020810190506104d8565b50505050905090810190601f1680156105205780820380516001836020036101000a031916815260200191505b50604052505050905090565b73__DataStorage___________________________63678a12726000836040518363ffffffff1660e01b81526004018083815260200180602001828103825283818151815260200191508051906020019080838360005b8381101561059e578082015181840152602081019050610583565b50505050905090810190601f1680156105cb5780820380516001836020036101000a031916815260200191505b50935050505060006040518083038186803b1580156105e957600080fd5b505af41580156105fd573d6000803e3d6000fd5b5050505050565b606073__DataStorage___________________________63eaea72916000846040518363ffffffff1660e01b8152600401808381526020018281526020019250505060006040518083038186803b15801561065e57600080fd5b505af4158015610672573d6000803e3d6000fd5b505050506040513d6000823e3d601f19601f82011682018060405250602081101561069c57600080fd5b81019080805160405193929190846401000000008211156106bc57600080fd5b838201915060208201858111156106d257600080fd5b82518660018202830111640100000000821117156106ef57600080fd5b8083526020830192505050908051906020019080838360005b83811015610723578082015181840152602081019050610708565b50505050905090810190601f1680156107505780820380516001836020036101000a031916815260200191505b50604052505050905091905056fea265627a7a723158205d3483664d4728a0fbd13fd2129c3dadacf92ef47c6ecc499404ed43b9cca9e764736f6c634300050c0032",
  "source": "pragma solidity >=0.4.21 <0.7.0;\n\n\n/**\n@title Library for Demo\n@author Nouman Ahmad\n@notice Not using in my contract, only for demo purpose\n */\n\nlibrary DataStorage {\n    // hold its data in the calling contract.\n    // saving user files and pending updates for demo purpose only\n    struct Data { mapping(address => string) userFiles;\n        mapping (uint256 => string) isPendingUpdates; }\n\n    // Note that the first parameter is of type \"storage\n    // reference\" and thus only its storage address\n    function insertFileForUser(Data storage self, string memory _hash)\n        public {\n        self.userFiles[msg.sender] = _hash;\n    }\n\n    // Get the file against user\n    function getFileForUser(Data storage self)\n    public view returns (string memory)\n    {\n        return self.userFiles[msg.sender];\n    }\n\n    // Add file as pending\n    function insertFileAsPending(Data storage self, uint fileContentHash, string memory timestamp)\n        public {\n        self.isPendingUpdates[fileContentHash] = timestamp;\n    }\n\n    // Get file from pending\n    function getTimeForPendingFile(Data storage self, uint fileContentHash )\n    public view returns (string memory)\n    {\n        return self.isPendingUpdates[fileContentHash];\n    }\n\n}\n\n/**\n@notice Contract written to interact with library for demo purpose only\nnot using this on front end.\n */\ncontract FilesDBWithLibrary {\n    DataStorage.Data dataStore ;\n\n    // Add file for user interacts with library\n    function addFileForUser(string memory _hash) public {\n        DataStorage.insertFileForUser(dataStore, _hash);\n    }\n\n    // Get file for user interacts with library\n    function getFile() public view returns(string memory) {\n        return DataStorage.getFileForUser(dataStore);\n    }\n\n    // Add file as pending with timestamp\n    function addFileAsPending(uint fileContentHash, string memory timestamp) public {\n        DataStorage.insertFileAsPending(dataStore, fileContentHash, timestamp);\n    }\n\n    // Get Pending file timestamp\n    function getPendingFileTime(uint fileContentHash) public view returns(string memory) {\n        return DataStorage.getTimeForPendingFile(dataStore, fileContentHash);\n    }\n}\n",
  "sourcePath": "/Users/noumanahmad/Documents/Block Chain/ProofOfExistence/contracts/LibraryDemo.sol",
  "compiler": {
    "name": "solc",
    "version": "0.5.12+commit.7709ece9.Emscripten.clang"
  },
  "schemaVersion": "3.0.20",
  "updatedAt": "2020-02-02T16:04:37.952Z",
  "devdoc": {
    "methods": {}
  },
  "userdoc": {
    "methods": {},
    "notice": "Contract written to interact with library for demo purpose only not using this on front end."
  }
}